:100000000C942A000C943C000C943C000C943C0092
:100010000C943C000C943C000C943C000C943C0070
:100020000C943C000C943C000C943C000C943E005E
:100030000C943C000C943C000C943C000C943C0050
:100040000C943C000C943C000C943C000C943C0040
:100050000C943C0011241FBECFE5D8E0DEBFCDBF1D
:1000600010E0A0E6B0E001C01D92A236B107E1F7B2
:100070000E94AB000C94EF020C9400001F920F92B0
:100080000FB60F9211248F939F93809160009091EF
:100090006100019690936100809360009F918F9121
:1000A0000F900FBE0F901F901895782F12BE83B738
:1000B000826083BF81E089BF789484EF91E028EC6F
:1000C00030E0F9013197F1F70197D9F718BA3AE121
:1000D000832F8A95F1F728B341E050E0CA0102C0AE
:1000E000880F991F7A95E2F7282B28BB3A95F1F7EC
:1000F00028B38095822388BB02C0440F551F6A95A0
:10010000E2F786B390E084239523892BD1F312BEC6
:10011000109261001092600086B390E084239523D2
:10012000892BD1F722B730E0809160009091610077
:10013000F894982F8827820F931F6AE370E00E943B
:10014000C802882777FD8095982F0E943C020E9464
:100150000902CB0108956F927F928F929F92AF9286
:10016000BF92CF92DF92EF92FF920F931F93CF93A4
:10017000DF9388EA87BB14BA8FEF8ABB81BBE2E0CA
:100180008E2EC8ECD0E070E2772E60E4962E54E01C
:10019000652E87E090E066E070E00E9455007C01EB
:1001A00083E090E062E070E00E945500AA2797FD8E
:1001B000A095BA2FBC01CD010E943C025B016C01ED
:1001C0000027F7FC0095102FC801B7010E943C02E0
:1001D00020E030E048EC52E40E940502181604F1D9
:1001E0008BBA80E197E2FE013197F1F70197D9F7D9
:1001F0001BBA80E197E2FE013197F1F70197D9F739
:100200007BBA80E197E2FE013197F1F70197D9F7C8
:100210001BBA80E593ECFE013197F1F70197D9F70E
:10022000C601B50120E030E044E353E40E9405023A
:1002300088239CF4C601B50120E030E04AE253E493
:100240000E94C40218164CF41BBA80E29EE4FE0120
:100250003197F1F70197D9F7BCC0C601B50120E08D
:1002600030E044E353E40E94C40288230CF441C00C
:100270009BBA88EE93E0FE013197F1F70197D9F729
:100280001BBA88EE93E0FE013197F1F70197D9F799
:100290009BBA88EE93E0FE013197F1F70197D9F709
:1002A0001BBA88EE93E0FE013197F1F70197D9F779
:1002B0009BBA88EE93E0FE013197F1F70197D9F7E9
:1002C0001BBA88EE93E0FE013197F1F70197D9F759
:1002D0009BBA88EE93E0FE013197F1F70197D9F7C9
:1002E0001BBA80E593ECFE013197F1F70197D9F73E
:1002F00070C0C601B50120E030E04AE253E40E943C
:10030000050218165CF1C601B50120E030E046E1B7
:1003100053E40E94C40288230CF19BBA88EE93E058
:10032000FE013197F1F70197D9F71BBA88EE93E0F8
:10033000FE013197F1F70197D9F79BBA88EE93E068
:10034000FE013197F1F70197D9F71BBA80E593ECDD
:10035000FE013197F1F70197D9F73BC0C601B5010E
:1003600020E030E046E153E40E94050288230CF0CF
:1003700030C09BBA88EE93E0FE013197F1F7019708
:10038000D9F71BBA88EE93E0FE013197F1F7019798
:10039000D9F79BBA88EE93E0FE013197F1F7019708
:1003A000D9F71BBA88EE93E0FE013197F1F7019778
:1003B000D9F79BBA88EE93E0FE013197F1F70197E8
:1003C000D9F71BBA80E593ECFE013197F1F701975D
:1003D000D9F79A9B11C062BA80E29EE4FE01319780
:1003E000F1F70197D9F712BA80E593ECFE01319746
:1003F000F1F70197D9F7CDCE12BA80E593ECFE0163
:100400003197F1F70197D9F7C4CE71D008F481E0A4
:10041000089504D06894B111B1C0089594D088F0C3
:100420009F5790F0B92F9927B751A0F0D1F0660FE0
:10043000771F881F991F1AF0BA95C9F712C0B130FB
:1004400081F09BD0B1E0089598C0672F782F88275E
:10045000B85F39F0B93FCCF3869577956795B3953A
:10046000D9F73EF490958095709561957F4F8F4FA9
:100470009F4F0895E89409C097FB3EF490958095AE
:10048000709561957F4F8F4F9F4F9923A9F0F92F5A
:1004900096E9BB279395F695879577956795B795D8
:1004A000F111F8CFFAF4BB0F11F460FF1BC06F5FBE
:1004B0007F4F8F4F9F4F16C0882311F096E911C0D0
:1004C000772321F09EE8872F762F05C0662371F0F1
:1004D00096E8862F70E060E02AF09A95660F771F05
:1004E000881FDAF7880F9695879597F90895990FE1
:1004F0000008550FAA0BE0E8FEEF16161706E807EE
:10050000F907C0F012161306E407F50798F0621B0E
:10051000730B840B950B39F40A2661F0232B242BE3
:10052000252B21F408950A2609F4A140A6958FEF02
:10053000811D811D089557FD9058440F551F59F096
:100540005F3F71F04795880F97FB991F61F09F3FC0
:1005500079F087950895121613061406551FF2CFE9
:100560004695F1DF08C0161617061806991FF1CF39
:1005700086957105610508940895E894BB27662760
:100580007727CB0197F90895B2DF08F48FEF08952C
:1005900097FB092E07260AD077FD04D00CD006D091
:1005A00000201AF4709561957F4F0895F6F79095A5
:1005B00081959F4F0895AA1BBB1B51E107C0AA1F3D
:1005C000BB1FA617B70710F0A61BB70B881F991FF4
:1005D0005A95A9F780959095BC01CD010895F8949E
:0205E000FFCF4B
:00000001FF
