:100000000C942A000C943C000C943C000C943C0092
:100010000C943C000C943C000C943C000C943C0070
:100020000C943C000C943C000C943C000C943C0060
:100030000C943C000C943C000C943C000C943C0050
:100040000C943C000C943C000C943C000C943C0040
:100050000C943C0011241FBECFE5D8E0DEBFCDBF1D
:1000600010E0A0E6B0E001C01D92A236B107E1F7B2
:100070000E943E000C9456000C9400008FEF87BB4A
:1000800083E886B980E487B94FEF369A369BFECF76
:1000900084B125B1322F20E090E0822B932B845F36
:1000A000914010F448BBF1CF18BAEFCFF894FFCFCE
:00000001FF
